:100000000C94A7000C94CF000C94CF000C94CF005C
:100010000C94CF000C94CF000C94CF000C94CF0024
:100020000C94CF000C94CF000C94CF000C94CF0014
:100030000C94CF000C94CF000C94CF000C94CF0004
:100040000C94BC110C94CF000C9441040C941B0430
:100050000C94CF000C94CF000C94CF000C94CF00E4
:100060000C947A050C94CF00036EDB363D9A999977
:10007000993DABAAAA2A3E000000803F072C7AA532
:10008000BA6CC590DA3B9365FC8BBC53F810FD3C11
:100090005692834DBD879D3AB63DCBC9BF5BBE73BB
:1000A000DA0FC93F05A84CCDB2D44EB93836A902F3
:1000B0000C50B9918688083CA6AAAA2ABE00000066
:1000C000803F0664EC1B3C04BC163E3BE5B93CC9D2
:1000D0003C37C29E5A3D660498083EEA69AAAA3E89
:1000E000000000803F0000000000240027002A00DC
:1000F00000000000250028002B0000000000230065
:100100002600290004040404040404040202020278
:1001100002020303030303030102040810204080CA
:100120000102040810200102040810200000000849
:1001300000020100000304070000000000000000AE
:100140001F1C1F1E1F1E1F1F1E1F1E1FBD1611243A
:100150001FBECFEFD8E0DEBFCDBF12E0A0E0B1E020
:10016000E6EFF8E302C005900D92A639B107D9F782
:1001700024E0A6E9B2E001C01D92A33EB207E1F778
:1001800010E0C7EAD0E004C02197FE010E94541C91
:10019000C63AD107C9F70E9406120C94791C0C9438
:1001A0000000CF92DF92EF92FF920F931F93CF93B5
:1001B000DF936C017A018B01C0E0D0E0CE15DF0542
:1001C00081F0D8016D918D01D601ED91FC910190E6
:1001D000F081E02DC6010995892B11F02196EECF13
:1001E0007E01C701DF91CF911F910F91FF90EF909A
:1001F000DF90CF900895FC01538D448D252F30E082
:10020000842F90E0821B930B541710F0CF96089523
:1002100001970895FC01918D828D981761F0828D70
:10022000DF01A80FB11D5D968C91928D9F5F9F732A
:10023000928F90E008958FEF9FEF0895FC01918DCC
:10024000828D981731F0828DE80FF11D858D90E039
:1002500008958FEF9FEF0895FC01918D228D892FD6
:1002600090E0805C9F4F821B91098F7399270895BE
:1002700086E793E00E942C0121E0892B09F420E01D
:10028000822F0895FC01848DDF01A80FB11DA35AB0
:10029000BF4F2C91848D90E001968F739927848FA6
:1002A000A689B7892C93A089B1898C9183708064C9
:1002B0008C93938D848D981306C00288F389E02D6A
:1002C00080818F7D80830895EF92FF920F931F931B
:1002D000CF93DF93EC0181E0888F9B8D8C8D9813F9
:1002E00005C0E889F989808185FD26C0F62E0B8D31
:1002F00010E00F5F1F4F0F731127E02E8C8DE81257
:100300000CC00FB607FCFACFE889F989808185FF18
:10031000F5CFCE010E944201F1CF8B8DFE01E80F97
:10032000F11DE35AFF4FF0829FB7F8940B8FEA89D3
:10033000FB89808180620AC09FB7F894EE89FF89AB
:100340006083E889F98980818370806480839FBF9E
:1003500081E090E0DF91CF911F910F91FF90EF909E
:100360000895CF93DF93EC01888D8823C9F0EA8943
:10037000FB89808185FD05C0A889B9898C9186FD9E
:100380000FC00FB607FCF5CF808185FFF2CFA8899B
:10039000B9898C9185FFEDCFCE010E944201E7CF54
:1003A000DF91CF91089580E090E0892B29F00E94A1
:1003B000380181110C940000089585ED8093BC00F4
:1003C0008091BC0084FDFCCF1092510308954091B0
:1003D000D902262F30E0240F311D21323105DCF403
:1003E000209151032430C9F4FC0180E090E086178D
:1003F00058F43091D9022191DC01A754BD4FA30FCD
:10040000B11D2C930196F3CF8091D902680F6093B0
:10041000D90280E0089581E0089582E0089508956A
:1004200008950895E0910A0380910903E81730F4D4
:10043000F0E0E55FFC4F808190E008958FEF9FEF43
:10044000089590910A0380910903981750F4E92FB9
:10045000F0E0E55FFC4F208130E09F5F90930A035E
:1004600002C02FEF3FEFC90108958091090390E08A
:1004700020910A03821B91090895CF92DF92EF9297
:10048000FF920F931F93CF93DF937C01CB018A01DF
:1004900020915203222389F0EB016B01C40ED51E7B
:1004A000CC15DD0569F06991D701ED91FC910190C2
:1004B000F081E02DC7010995F3CF642F0E94E70179
:1004C000C801DF91CF911F910F91FF90EF90DF90C6
:1004D000CF900895CF93DF931F92CDB7DEB7698396
:1004E000209152032223D1F020917503203240F055
:1004F00021E030E0FC013383228380E090E015C0EE
:1005000080915303E82FF0E0EC5AFC4F99819083DF
:100510008F5F809353038093750305C061E0CE0124
:1005200001960E94E70181E090E00F90DF91CF916A
:100530000895089580E090E008950E94741C1F9330
:10054000CF93DF936436D8F4EC01862F6AE00E94E3
:10055000D71B192F682F70E080E090E00E943C19B3
:100560000E94771920E030E040E452E40E94011834
:100570000E9404196883105D198381E001C080E046
:10058000DF91CF911F9108956115710579F0FB01FD
:1005900001900020E9F73197AF01461B570BDC01B2
:1005A000ED91FC910280F381E02D099480E090E0D0
:1005B00008958F929F92AF92BF92EF92FF920F9306
:1005C0001F93CF93DF93CDB7DEB7A1970FB6F89403
:1005D000DEBF0FBECDBF7C01FA01CB0119A22230D4
:1005E00008F42AE08E010F5D1F4F822E912CA12C62
:1005F000B12CBF01A50194010E940B1CF901CA0195
:10060000015011096A3014F4605D01C0695CD801C1
:100610006C93232B242B252B61F7B801C7010E9473
:10062000C402A1960FB6F894DEBF0FBECDBFDF9116
:10063000CF911F910F91FF90EF90BF90AF909F903F
:100640008F9008950C94C402CF92DF92EF92FF92A4
:100650000F931F930E94950F0091B5021091B6025F
:100660002091B7023091B8026B017C01C01AD10A07
:10067000E20AF30A40EDC41647E0D406E104F104AF
:100680000CF4D2C06093B5027093B6028093B702A7
:100690009093B8028BE092E00E94D50F88E292E03E
:1006A0000E94D50F0E94251024E0829FC0011124D2
:1006B000BC01605C7E4F86E793E00E9422036BE3FF
:1006C00072E086E793E00E9422036091DD0444E03B
:1006D000649FB0011124645F7E4F86E793E00E941F
:1006E00022036CE372E086E793E00E9422036091AC
:1006F000DE0486E793E00E94E40F6EE372E086E793
:1007000093E00E9422036091DF0486E793E00E9459
:10071000E40F69E372E086E793E00E942203809190
:10072000E0048A3030F460E070E086E793E00E94F5
:10073000EB0F6091E00486E793E00E94E40F69E329
:1007400072E086E793E00E9422038091E1048A3000
:1007500030F460E070E086E793E00E94EB0F609178
:10076000E10486E793E00E94E40F0E94CF0F0E940D
:10077000CF0F62E472E086E793E00E94220386E0F6
:1007800091E00E94D50F64E572E086E793E00E9455
:1007900022034091A2025091A30260E070E02AE09F
:1007A00086E793E00E94D9020E94CF0F0E94CF0FEC
:1007B0006AE672E086E793E00E94220380E091E01F
:1007C0000E94D50F64E572E086E793E00E94220361
:1007D0004091A0025091A10260E070E02AE086E71B
:1007E00093E00E94D9020E94CF0F0E94CF0F6BE7C7
:1007F00072E086E793E00E94220340919A025091B2
:100800009B0260919C0270919D022AE086E793E032
:100810000E94D9020E94CF0F1F910F91FF90EF907D
:10082000DF90CF900C94CF0F1F910F91FF90EF901E
:10083000DF90CF9008951F920F920FB60F92112460
:100840002F933F934F935F936F937F938F939F93D8
:10085000AF93BF93EF93FF9386E793E00E9442012B
:10086000FF91EF91BF91AF919F918F917F916F9188
:100870005F914F913F912F910F900FBE0F901F905E
:1008800018951F920F920FB60F9211242F938F93EA
:100890009F93EF93FF93E0918603F091870380810C
:1008A000E0918C03F0918D0382FD12C090818091C4
:1008B0008F038F5F8F7320919003821751F0E09127
:1008C0008F03F0E0EA58FC4F958F80938F0301C0AF
:1008D0008081FF91EF919F918F912F910F900FBE8B
:1008E0000F901F9018958F929F92AF92BF92CF92C8
:1008F000DF92EF92FF92CF93DF93FC0120812223BE
:10090000D9F1EC010E94950FCD84DE84EF84F88844
:100910009B01AC012C193D094E095F0969017A015F
:1009200029873A874B875C878F809884A12CB12CCC
:10093000AD81BE810E944C1CA50194010E942D1C1A
:100940008C81280F2A838B81281729F0C814D90499
:10095000EA04FB0414F08A8318826A8170E08981BA
:10096000DF91CF91FF90EF90DF90CF90BF90AF904D
:100970009F908F900C94D70EDF91CF91FF90EF90C6
:10098000DF90CF90BF90AF909F908F900895CF93BE
:10099000DF93EC018881811118C06B838A8168170D
:1009A000A1F070E0681B71097E836D838C8358878A
:1009B0004F8319861A861B861C860E94950F6D87A9
:1009C0007E878F87988B81E08883DF91CF91089510
:1009D0000F931F93CF93DF93FC012081222319F102
:1009E000EC010E94950F09811A812B813C81DC0169
:1009F000CB01801B910BA20BB30B0D811E812F81AC
:100A0000388580179107A207B30768F00E94950FF9
:100A100069837A838B839C83E985FA85DF91CF9103
:100A20001F910F910994DF91CF911F910F9108951C
:100A3000FC018381882321F081E09581911101C01F
:100A400080E00895CF92DF92EF92FF920F931F9371
:100A5000CF93DF93EC010E94950F6B017C016093B3
:100A6000FD027093FE028093FF0290930003888141
:100A70000E94430E8093FC029A81992329F091E011
:100A8000811190E09093FC028A859B85AC85BD85A1
:100A900097018601081B190B2A0B3B0B4E855F85BE
:100AA000688979899B81041715072607370738F469
:100AB000CE82DF82E886F9861D82892F12C09C8350
:100AC0008091FC028B83CE82DF82E886F9869817BC
:100AD00039F0CA86DB86EC86FD8691E09D8301C0F5
:100AE0001D82DF91CF911F910F91FF90EF90DF90CA
:100AF000CF9008951F920F920FB60F9211242F934B
:100B00003F934F935F936F937F938F939F93AF9395
:100B1000BF93EF93FF938091B900887F803609F4EB
:100B20009CC068F5883209F45BC090F4803109F408
:100B300054C038F4882309F4F6C0883009F44DC055
:100B4000F6C0883109F44CC0803209F45DC0EFC0B2
:100B5000803409F468C048F4803309F455C0883300
:100B600009F0E5C080934F03D8C0803509F44FC029
:100B7000883509F45DC0883409F0D9C0D6C08839F9
:100B800009F4C7C0A8F4883709F467C038F4883678
:100B900009F463C0803709F460C0C9C0883809F41B
:100BA000B8C0803909F45FC0803809F0C0C05BC0AC
:100BB000803B09F486C038F4803A09F466C0883A6C
:100BC00009F47FC0B4C0803C09F4A7C0883C09F494
:100BD000A4C0883B09F48AC0AAC080912C0310C02D
:100BE00090914E0380914D03981770F5E0914E035C
:100BF00081E08E0F80934E03F0E0E35DFC4F808137
:100C00008093BB0085EC86C080934F038EC0E0913B
:100C10004E0381E08E0F80934E038091BB00F0E085
:100C2000E35DFC4F808390914E0380914D036EC035
:100C3000E0914E0381E08E0F80934E038091BB00C4
:100C4000F0E0E35DFC4F80838091500381116DC023
:100C500081E080932B0384EA61C083E08093510399
:100C60001092FB02CFCF8091FB02803208F051C07E
:100C7000E091FB0281E08E0F8093FB028091BB002C
:100C8000F0E0E552FD4F8083BDCF85EC8093BC0042
:100C9000109251038091FB02803230F4E091FB020C
:100CA000F0E0E552FD4F10826091FB0270E0E091B0
:100CB0009602F09197028BED92E009951092FB025B
:100CC00036C084E0809351031092DA021092D90268
:100CD000E0919802F091990209958091D9028111D1
:100CE00005C081E08093D9021092B902E091DA0246
:100CF00081E08E0F8093DA02F0E0E754FD4F8081AF
:100D00008093BB009091DA028091D902981708F481
:100D100079CF85E88093BC000AC085EC8093BC0045
:100D20001092510304C010924F030E94DD01FF9105
:100D3000EF91BF91AF919F918F917F916F915F9153
:100D40004F913F912F910F900FBE0F901F901895CC
:100D5000FC01248131E030935203209374031092FC
:100D60005303109275038385682B83E194E00E94FE
:100D70006A020C9458100F931F93CF938C01C62FC7
:100D80000E94A8066C2F6460C8010E94A8066C2F00
:100D90006B7FC8010E94A80683EC90E00197F1F7F1
:100DA000CF911F910F9108950F931F93CF93DF93CE
:100DB0008C01D62FC42F607F642B0E94BB066D2F41
:100DC0006295607F6C2BC801DF91CF911F910F91CD
:100DD0000C94BB0641E00E94D40681E090E00895A7
:100DE00080919F0280FD92C060E080E00E94B4107C
:100DF0006091DD0484E0689FB0011124645F7E4F40
:100E00008BEB94E00E94220368E872E08BEB94E0A5
:100E10000E9422038091DE048A3030F460E070E0AA
:100E20008BEB94E00E94EB0F6091DE048BEB94E07F
:100E30000E94E40F6EEF8BEB94E00E94EA066EEFE7
:100E40008BEB94E00E94EA068091DF048A3030F454
:100E500060E070E08BEB94E00E94EB0F6091DF04A8
:100E60008BEB94E00E94E40F69E372E08BEB94E07B
:100E70000E9422038091E0048A3030F460E070E048
:100E80008BEB94E00E94EB0F6091E0048BEB94E01D
:100E90000E94E40F69E372E08BEB94E00E9422036E
:100EA0008091E1048A3030F460E070E08BEB94E0F4
:100EB0000E94EB0F6091E1048BEB94E00E94E40F41
:100EC00061E080E00E94B41067E872E08BEB94E090
:100ED0000E94220366E071E08BEB94E00E94220303
:100EE0006EEF8BEB94E00E94EA066EEF8BEB94E0E2
:100EF0000E94EA066AE872E08BEB94E00E9422030B
:100F000060E071E08BEB94E00C94220360919E0210
:100F100062956F7080E00E94B4106DE872E08BEB18
:100F200094E00E94220360919E02862F8F7081F0D0
:100F300062956F700E94B4106091C104862F816029
:100F40008093C104696040E08BEB94E00C94D4067C
:100F500008954F925F926F927F928F929F92AF927D
:100F6000BF92CF92DF92EF92FF920F931F93CF9396
:100F7000DF9300D000D000D0CDB7DEB78C016B017D
:100F8000072E000C880B990B0E943C1920E030E0E2
:100F900040E752E40E9492184B015C010E947719CD
:100FA0002B013C01C501B4010E940B19E62EA301DF
:100FB0009201C501B4010E94001820E030E040E732
:100FC00052E40E94E31A0E940B19F62E8BE38F1550
:100FD00010F4E394F12C80918F0290919002A091F3
:100FE000910289839A83AB838C839D83AE83E0EAED
:100FF000CE16E5E0DE06A0F56E2DCE0101960E942C
:101000009F02882369F16F2DCE0104960E949F02F2
:10101000882331F18981F80180838A8181838AE381
:1010200082838C8183838D818483158290E081E02B
:10103000892726960FB6F894DEBF0FBECDBFDF918D
:10104000CF911F910F91FF90EF90DF90CF90BF90C5
:10105000AF909F908F907F906F905F904F9008958A
:1010600085E4F801808382E5818382839FE4938312
:101070008483158291E0DBCF1F93CF93DF93EC0144
:10108000162F0E94D917181739F0612FCE01DF9162
:10109000CF911F910C94E117DF91CF911F9108958B
:1010A000833081F028F4813099F08230A1F00895E6
:1010B0008730A9F08830B9F08430D1F48091800075
:1010C0008F7D03C0809180008F778093800008958A
:1010D00084B58F7702C084B58F7D84BD08958091DB
:1010E000B0008F7703C08091B0008F7D8093B000F7
:1010F00008958F929F92AF92BF92CF92DF92EF921C
:10110000FF926B017C012AE534EC41EF54E40E942C
:10111000E31A9B01AC016BE774E18AEF92E40E9451
:1011200000182BED3FE049E450E40E94E31A20E070
:1011300030E044E353E40E9492180E948D184B0162
:101140005C012FE232EA4DEE5AE3C701B6010E947C
:10115000E31A9B01AC016BE37AEA8AE19AE30E940D
:101160000018A70196010E94E31A2FE832E44BE32E
:1011700052E40E940118A70196010E94E31A9B0104
:10118000AC0161E875E98BEA91E40E94001820E067
:1011900030E040E752E40E94921820E030E040ED59
:1011A00051E40E94011820E030E040E752E40E9440
:1011B000921820E030E048EB51E40E9401186B01E6
:1011C0007C012CEA35EC47E25BE3C501B4010E94E7
:1011D000E31A9B01AC01C701B6010E940118FF9000
:1011E000EF90DF90CF90BF90AF909F908F90089539
:1011F0003F924F925F926F927F928F929F92AF92A7
:10120000BF92CF92DF92EF92FF920F931F93CF93F3
:10121000DF93CDB7DEB7AA970FB6F894DEBF0FBE47
:10122000CDBF382ECB01BA0109A31AA32BA33CA32F
:10123000CDA2DEA2EFA2F8A624E631EA45E15AE407
:101240000E94001820E03DEA4EE057E40E94921808
:101250002B013C010E9479084B015C0121ED36EF26
:101260004EE959E3C301B2010E94E31A25EC30EACA
:101270004CE057E40E940118A30192010E94E31A76
:1012800025EB3BE34CE853E40E94011869A77AA7D9
:10129000182F092F6B01E82EF92E20E030E044EBE7
:1012A00053E4B601C7010E94DE1A18165CF420E070
:1012B00030E044EB53E4B601C7010E9400186B0113
:1012C0007C01EBCF20E030E0A901B601C7010E940C
:1012D000881887FF0BC020E030E044EB53E4B601F0
:1012E000C7010E9401186B017C01ECCF28E03BE0B4
:1012F00048E054E3C301B2010E94E31A23EE30E553
:1013000040E358E30E940118A30192010E94E31AEE
:101310009B01AC016CE870EE88E89CE30E94001829
:1013200069837A838B839C832BED3FE049E450E40F
:10133000C501B4010E94E31A20E030E044E353E425
:101340000E949218698B7A8B8B8B9C8B20E030E00B
:1013500040E05FE30E94E31A0E949E1B9B01AC01E8
:101360000E94E31A69877A878B879C872BED3FE081
:1013700049E450E4B601C7010E94E31A20E030E0DE
:1013800044E353E40E9492186B017C019B01AC0181
:101390000E9401184B015C010E94501B698F7A8FDB
:1013A0008B8F9C8F28E83AE241E259E3C301B201F6
:1013B0000E94E31A9B01AC016DE07FE98CE097E4A9
:1013C0000E940018A30192010E94E31A2AEB33EC59
:1013D00042EB53E40E9401182BED3FE049E450E456
:1013E0000E94E31A20E030E044E353E40E949218A4
:1013F0006D837E838F8398870E94501B6D877E87C5
:101400008F87988BC501B4010E948D184B015C0138
:1014100020E030E040E850E4C701B6010E94E31A42
:101420000E94501B6D8F7E8F8F8F98A32D813E81E0
:101430004F815885CA01B9010E9401180E94501BB2
:101440006D8B7E8B8F8B988F298D3A8D4B8D5C8D1C
:1014500069857A858B859C850E94E31A6B017C01E6
:1014600029813A814B815C81CA01B9010E9401182E
:101470002D853E854F8558890E94E31A9B01AC015A
:10148000C701B6010E9400186B017C0120E030E02A
:1014900040E850E469817A818B819C810E94E31A43
:1014A00029853A854B855C850E94E31A2D853E850A
:1014B0004F8558890E94E31AA50194010E94E31AFE
:1014C0009B01AC01C701B6010E9401186B017C01B0
:1014D00020E030E040E05FE369857A858B859C857C
:1014E0000E94E31A29853A854B855C850E94E31AA0
:1014F0002D8D3E8D4F8D58A10E94E31A9B01AC01AA
:10150000C701B6010E9400186B017C0120E030E0A9
:1015100040EA5FE369817A818B819C810E94E31AB2
:1015200029813A814B815C810E94E31A2D893E8991
:101530004F89588D0E94E31A9B01AC01C701B60187
:101540000E94001820E030E044E353E40E94E31AD4
:101550002BED3FE049E450E40E94921820E030E097
:1015600040E850E40E94E31A69877A878B879C875A
:1015700020E030E044EB53E469A57AA5812F902F59
:101580000E94DE1A18167CF420E030E044EB53E4AD
:1015900069A57AA5812F902F0E94001869A77AA7C4
:1015A000182F092FE5CF20E030E0A90169A57AA521
:1015B000812F902F0E94881887FF0FC020E030E015
:1015C00044EB53E469A57AA5812F902F0E9401185E
:1015D00069A77AA7182F092FE6CF20E030E040E472
:1015E00050E46D817E818F8198850E94E31A0E946C
:1015F000501B69837A838B839C832AE534EC41EF0B
:1016000054E4C301B2010E94E31A9B01AC016BE7F1
:1016100074E18AEF92E40E9400182BED3FE049E468
:1016200050E40E94E31A20E030E044E353E40E94D7
:1016300092180E94501B4B015C0169897A898B8941
:101640009C890E94501B6B017C012BE831EE4AE61D
:1016500057E3C301B2010E94E31A2DEE37ED4DE9C5
:101660005BE30E940118A30192010E94E31A9B010F
:10167000AC016EEA71E185EF9FE30E9400182D85B1
:101680003E854F8558890E94E31A6D837E838F8340
:10169000988726EF3FEC43ED58E3C301B2010E9467
:1016A000E31A9B01AC016CE578EC83EA9CE30E94B1
:1016B00000182D893E894F89588D0E94E31A9B019D
:1016C000AC016D817E818F8198850E9401182B016C
:1016D0003C012CEE34E847E959E369817A818B813A
:1016E0009C810E94E31A9B01AC01C301B2010E94DC
:1016F000011829A53AA5412F502F0E9401182EE26A
:1017000033E74AEB5BE30E9400182B013C012CE815
:1017100031EA4CE95BE3C501B4010E94E31A9B0185
:10172000AC01C301B2010E9400182BED3FE049E477
:1017300050E40E94E31A20E030E044E353E40E94C6
:1017400092180E94501B9B01AC01C701B6010E9478
:10175000E31A0E946D186B017C012BED3FE049E418
:1017600050E469A17AA18BA19CA10E94E31A20E018
:1017700030E044E353E40E9492184B015C0120E006
:1017800030E044E353E4C701B6010E94E31A2BEDB5
:101790003FE049E450E40E9492182BED3FE049E419
:1017A00050E40E94E31A20E030E044E353E40E9456
:1017B00092186B017C01C501B4010E948D182B01A8
:1017C0003C01C701B6010E948D1869837A838B831F
:1017D0009C83C501B4010E949E1B4B015C01C701A3
:1017E000B6010E949E1B6B017C0129813A814B81CD
:1017F0005C81C301B2010E94E31A9B01AC0169E064
:1018000071E38EE69CEB0E9492182B013C01A7012C
:101810009601C501B4010E94E31A9B01AC01C3010A
:10182000B2010E9400180E94EF17311001C09058B9
:1018300020E030E044E353E40E94E31A2BED3FE064
:1018400049E450E40E9492182DA13EA14FA158A551
:101850000E94011820E030E040E850E40E94E31AC2
:101860009B01AC0160E070E084E394E40E94001806
:1018700029853A854B855C850E940018AA960FB68B
:10188000F894DEBF0FBECDBFDF91CF911F910F91B6
:10189000FF90EF90DF90CF90BF90AF909F908F9090
:1018A0007F906F905F904F903F900895FF920F93BD
:1018B0001F93CF93DF938C01FF24F394F092520394
:1018C000D8E6D0937403109253031092750360E02E
:1018D00083E194E00E946A02F8012581CAE0822F28
:1018E0006C2F0E94D71B682F660F860F880F682FFA
:1018F000620F83E194E00E946A02F8012481822F42
:101900006C2F0E94D71B682F660F860F880F682FD9
:10191000620F83E194E00E946A02F8012381822F22
:101920006C2F0E94D71B682F660F860F880F682FB9
:10193000620F83E194E00E946A0260E083E194E038
:101940000E946A02F8012281822F6C2F0E94D71B0D
:10195000682F660F860F880F682F620F83E194E06F
:101960000E946A02F8012181822F6C2F0E94D71BEE
:10197000682F660F860F880F682F620F83E194E04F
:101980000E946A02F8012081822F6C2F0E94D71BCF
:10199000682F660F860F880F682F620F83E194E02F
:1019A0000E946A020E945810F0925203D09374036E
:1019B00010925303109275036FE083E194E00E944C
:1019C0006A020E94581061E088E60E947A11109223
:1019D0000A038093090383E194E00E942102C82F47
:1019E000F0925203D0937403109253031092750334
:1019F0006FE083E194E00E946A026C2F6F7783E1CD
:101A000094E00E946A02DF91CF911F910F91FF90A5
:101A10000C9458102F923F924F925F926F927F9248
:101A20008F929F92AF92BF92CF92DF92EF92FF92EE
:101A30000F931F93CF93DF9300D000D000D0CDB78A
:101A4000DEB7382E3B015A8349833E832D83202EF7
:101A5000433051053CF421E0621A7108CA010C962A
:101A60009A838983C30164E670E00E94F71B072E06
:101A7000000C880B990B0E943C190E9477190E9458
:101A800004194B015C0177FF02C06D5F7F4F7595B4
:101A9000679575956795072E000C880B990B0E942A
:101AA0003C190E9477196B017C01B30164597D4E8A
:101AB000072E000C880B990B0E943C1920E030EA9D
:101AC00046EB53E40E94E31A0E9477192B013C0174
:101AD00029813A812F5F3F4FB901330F880B990B52
:101AE0000E943C1921E03DEC44EF51E40E94E31ACE
:101AF0000E94771969837A838B839C8362E070E00C
:101B000068197909072E000C880B990B0E943C1963
:101B1000A70196010E9401180E940419072E000CCB
:101B2000880B990B0E943C196B017C0129813A8139
:101B30004B815C81C301B2010E9401184B015C0121
:101B40002D813E81B901330F880B990B0E943C19FE
:101B50009B01AC01C501B4010E9401189B01AC01BD
:101B6000C701B6010E94011820E030E94EEB54E4B1
:101B70000E94001869837A838B839C834090390488
:101B800050903A0460903B0470903C04809035047F
:101B900090903604A0903704B0903804730162012D
:101BA00095018401AB01BC01832D0E94F80820E05F
:101BB00030E044EB54E40E94921829813A814B8131
:101BC0005C810E940118AB01BC0195018401832D49
:101BD0000E94F8086B017C019B01AC010E94C31BB1
:101BE000811136C080913D0490913E042CE3289FE2
:101BF000B001299F700D1124072E000C880B990B42
:101C00000E943C19A70196010E9401186B017C01FA
:101C100020E030E0A9010E94DE1A20E030E040E040
:101C20005FE387FD05C0C701B6010E94011804C02B
:101C3000C701B6010E9400180E940419211003C0B8
:101C400080E090E002C08CE390E0860F971F02C016
:101C50008FEF9FEF26960FB6F894DEBF0FBECDBF75
:101C6000DF91CF911F910F91FF90EF90DF90CF9078
:101C7000BF90AF909F908F907F906F905F904F90AC
:101C80003F902F900895CF93DF93282F30E0F901F4
:101C9000E45DFE4F8491F901E85EFE4FD491F901B5
:101CA000EC5FFE4FC491CC2391F081110E9450084B
:101CB000EC2FF0E0EE0FFF1FE650FF4FA591B4911F
:101CC000EC91ED2381E090E021F480E002C080E01F
:101CD00090E0DF91CF9108951F93CF93DF93282F4A
:101CE00030E0F901E45DFE4F8491F901E85EFE4FBA
:101CF000D491F901EC5FFE4FC491CC23C1F0162FB3
:101D000081110E945008EC2FF0E0EE0FFF1FE05110
:101D1000FF4FA591B4919FB7F894111104C08C9115
:101D2000D095D82302C0EC91DE2BDC939FBFDF91CE
:101D3000CF911F910895CF93DF9390E0FC01E85E6F
:101D4000FE4F2491FC01EC5FFE4F8491882361F1EA
:101D500090E0880F991FFC01EA51FF4FC591D49183
:101D6000FC01E051FF4FA591B491611109C09FB7EB
:101D7000F8948881209582238883EC912E230BC0D0
:101D8000623061F49FB7F8948881322F30958323B5
:101D90008883EC912E2B2C939FBF06C08FB7F894AD
:101DA000E8812E2B28838FBFDF91CF9108951F9359
:101DB000CF93DF93182FEB0161E00E949B0E2097D9
:101DC00011F460E004C0CF3FD10539F461E0812F08
:101DD000DF91CF911F910C946C0EE12FF0E0E45D48
:101DE000FE4FE491E330F9F048F4E130B9F0E2302D
:101DF000A1F584B5806284BDC8BD34C0E730E9F088
:101E0000E83019F1E43049F58091800080628093D8
:101E10008000D0938B00C0938A0024C084B5806872
:101E200084BDC7BD1FC08091800080688093800002
:101E3000D0938900C093880015C08091B00080685D
:101E40008093B000C093B3000DC08091B000806259
:101E50008093B000C093B40005C0C038D1050CF029
:101E6000B5CFAFCFDF91CF911F9108953FB7F894D1
:101E70008091050390910603A0910703B091080398
:101E800026B5A89B05C02F3F19F00196A11DB11DD5
:101E90003FBFBA2FA92F982F8827820F911DA11D10
:101EA000B11DBC01CD0142E0660F771F881F991F4D
:101EB0004A95D1F708958F929F92AF92BF92CF9299
:101EC000DF92EF92FF926B017C010E94360F4B0173
:101ED0005C01C114D104E104F104F1F00E94360F59
:101EE000DC01CB0188199909AA09BB09883E9340F6
:101EF000A105B10570F321E0C21AD108E108F1088B
:101F000088EE880E83E0981EA11CB11CC114D10478
:101F1000E104F10419F7DDCFFF90EF90DF90CF904F
:101F2000BF90AF909F908F9008952FB7F8946091D5
:101F300001037091020380910303909104032FBF6A
:101F40000895CF93DF93EC01862F688391E0998306
:101F50009A834EE150E060E070E04E875F87688BC7
:101F6000798B62E00E949B0E88810E94430E8B83D6
:101F70009A81992321F091E0811190E09B830E9446
:101F8000950F6E837F83888799872B812C831D8291
:101F90006A877B878C879D87DF91CF91089562E95F
:101FA00072E086E793E00C94C402CF93DF93BC0108
:101FB00086E793E00E94C402EC010E94CF0F8C0FD1
:101FC0009D1FDF91CF910895462F50E060E070E0B3
:101FD0002AE00C94D902CF92DF92EF92FF920F93F6
:101FE0001F93CF93DF936B01770FEE08FF08F7FE87
:101FF0001FC0EC01E881F9810190F081E02D6DE2D4
:1020000009958C0144275527BA014C195D096E09C1
:102010007F092AE0CE010E94D902800F911FDF9133
:10202000CF911F910F91FF90EF90DF90CF90089587
:102030002AE0B701A601DF91CF911F910F91FF9088
:10204000EF90DF90CF900C94D9026091DD049091D5
:10205000DC04492F50E02091DE0430E0E0E4F1E0C0
:1020600081E0861730F47491270F311D8F5F319610
:10207000F8CF633020F0937011F42F5F3F4F6DE67F
:1020800071E0469FC001479F900D569F900D11240F
:1020900005964D5F5F4F5695479556954795840F2A
:1020A000951F820F931F67E070E00E94E31B089565
:1020B00030917503313208F04BC08091510381118A
:1020C000FCCF9091740322E02093510321E02093F0
:1020D00050032FEF20934F0310924E0330934D0384
:1020E000E4E5F3E0ADE2B3E020E0321721F0419106
:1020F0004D932F5FFACF10922C0320912C03990F50
:10210000922B90932C0390912B03913061F41092B9
:102110002B0390912C039093BB009091BC0093FDF6
:10212000F8CF95EC01C095EE9093BC0090915103CF
:102130009230E1F390914F039F3F79F080914F03EC
:10214000803241F080914F03803331F084E005C04C
:1021500081E003C082E001C083E01092530310923B
:102160007503109252030895CF93DF93CDB7DEB776
:1021700028970FB6F894DEBF0FBECDBF98E0ECE510
:10218000F1E0DE01119601900D929A95E1F79091A0
:10219000C304961710F46FEF690FFE013196E60F36
:1021A000F11DE60FF11D6081680F606840E08BEB68
:1021B00094E028960FB6F894DEBF0FBECDBFDF9136
:1021C000CF910C94D40640E061E08BEB94E00E9448
:1021D000D4068BE39FE10197F1F708958F929F92C8
:1021E000AF92BF92CF92DF92EF92FF920F931F9325
:1021F000CF936B017C01B42E20E030E0A9010E9456
:10220000881887FF0BC06DE286E793E00E946401A7
:102210008C01F7FAF094F7F8F09402C000E010E0B7
:10222000C0E060E070E080E09FE3CB1541F020E08B
:1022300030E040E251E40E949218CF5FF6CFA70150
:1022400096010E9401186B017C010E940B194B0141
:102250005C012AE0AB01BC0186E793E00E94D90251
:10226000080F191FCC23C9F1C501B4010E943A1906
:102270009B01AC01C701B6010E9400186B017C01F3
:102280006EE286E793E00E946401080F191F20E0C8
:1022900030E040E251E4C701B6010E94E31A4B016D
:1022A0005C010E940B196B01E12CF12C2AE0B701B3
:1022B000A60186E793E00E94D902080F191FC70103
:1022C000B6010E943A199B01AC01C501B4010E94FC
:1022D00000186B017C01C150D1F6C801CF911F914C
:1022E0000F91FF90EF90DF90CF90BF90AF909F90B5
:1022F0008F900895909151039111FCCF91E09093AC
:102300005103909350032FEF20934F0310924E03ED
:10231000260F20934D0390932C0390912C03880F4C
:10232000892B80932C0380912B03813061F41092D0
:102330002B0380912C038093BB008091BC0083FD14
:10234000F8CF85EC01C085EE8093BC0080915103ED
:102350008130E1F380914E03861710F460914E03B3
:10236000ADE2B3E0EBE0F3E080E0861721F09D9171
:1023700091938F5FFACF08951F920F920FB60F922D
:1023800011242F933F938F939F93AF93BF9380918B
:10239000010390910203A0910303B09104033091D3
:1023A000E20423E0230F2D3720F40196A11DB11D77
:1023B00005C026E8230F0296A11DB11D2093E2045B
:1023C0008093010390930203A0930303B09304034B
:1023D0008091050390910603A0910703B091080333
:1023E0000196A11DB11D8093050390930603A09350
:1023F0000703B0930803BF91AF919F918F913F91D5
:102400002F910F900FBE0F901F901895CF93DF93D1
:1024100000D000D000D0CDB7DEB7789484B582600C
:1024200084BD84B5816084BD85B5826085BD85B578
:10243000816085BD80916E00816080936E001092F6
:102440008100809181008260809381008091810071
:102450008160809381008091800081608093800002
:102460008091B10084608093B1008091B000816060
:102470008093B00080917A00846080937A0080918C
:102480007A00826080937A0080917A0081608093E4
:102490007A0080917A00806880937A001092C1005F
:1024A000E0918603F091870382E08083E0918203CC
:1024B000F09183031082E0918403F091850380E121
:1024C000808310928E03E0918A03F0918B0386E063
:1024D0008083E0918803F09189038081806180830B
:1024E000E0918803F0918903808188608083E09186
:1024F0008803F0918903808180688083E09188035C
:10250000F091890380818F7D808364E971E086E7A3
:1025100093E00E9422032AE040E052EC61E070E088
:1025200086E793E00E94D9028FEA91E00E94D50FDE
:1025300062E08EE00E949B0E62E08FE00E949B0EA4
:1025400062E080E10E949B0E62E081E10E949B0EAE
:1025500062E08CE00E949B0E61E088E00E949B0E8E
:1025600060E088E00E946C0E61E083E00E949B0EB8
:1025700060E083E00E946C0E61E08AE00E949B0EA6
:1025800060E08AE00E946C0E61E08BE00E949B0E8E
:1025900060E08BE00E946C0E61E08DE00E949B0E7B
:1025A00060E08DE00E946C0E61E089E00E949B0E6D
:1025B00010920A03109209031092530310927503AC
:1025C0001092510381E08093500310922B0361E03D
:1025D00082E10E946C0E61E083E10E946C0E8091AA
:1025E000B9008E7F8093B9008091B9008D7F809370
:1025F000B90088E48093B80085E48093BC008FE044
:1026000092E0909399028093980280E192E09093F7
:102610009702809396021092C0048091C504823084
:1026200018F098E09093C0048093C3048BE39DE07E
:102630000197F1F76091C6048BEB94E00E94A80625
:1026400068EE73E080E090E00E945B0F60E38BEB4C
:1026500094E00E94BB060BE416E4C8010197F1F771
:1026600060E38BEB94E00E94BB06C8010197F1F791
:1026700060E38BEB94E00E94BB0683E592E0019758
:10268000F1F760E28BEB94E00E94BB066091C0041E
:10269000606240E08BEB94E00E94D40684E080937B
:1026A000C10440E06CE08BEB94E00E94D4060E94F1
:1026B000E31082E08093C20440E066E08BEB94E09C
:1026C0000E94D40640E062E08BEB94E00E94D406C6
:1026D0000BE31FE1C8010197F1F70E94E3106FEFD0
:1026E00070E086E00E94D70E40E062E08BEB94E061
:1026F0000E94D406C8010197F1F786EB91E00E9491
:10270000D50F60ED71E086E793E00E94220342E07E
:1027100065EC7EEF84E492E40E94EE100E94CF0FFD
:102720006CED71E086E793E00E94220342E064E0F2
:1027300076EF85EF92EC0E94EE100E94CF0F69EECB
:1027400071E086E793E00E94220368EF7FEF86E75F
:1027500093E00E94EB0F0E94CF0F0E94CF0F66EF15
:1027600071E08BEB94E00E94220361E080E00E9424
:10277000B41064E072E08BEB94E00E9422032AE044
:1027800040E052EC61E070E08BEB94E00E94D902F3
:1027900068EB7BE080E090E00E945B0F0E94E3101A
:1027A00033243394EAEFFE2EF0E12F2E80E090E008
:1027B0000E94D9178093B40281E090E00E94D9175B
:1027C0008093B30287E894E00E94220585E794E0B5
:1027D0000E94220583E694E00E94220581E594E0B0
:1027E0000E9422058FE394E00E942205309252035A
:1027F00028E620937403109253031092750360E04F
:1028000083E194E00E946A020E94581067E088E623
:102810000E947A1110920A038093090383E194E0E5
:102820000E9421028F77982F92959F70D82E9F9D9E
:10283000D00C112483E194E00E9421029C013327F3
:1028400094E0359527959A95E1F7182FF29E100D93
:10285000112483E194E00E9421029C01332744E08B
:10286000359527954A95E1F7E82EF29EE00C112464
:1028700083E194E00E94210283E194E00E9421021E
:102880009C01332754E0359527955A95E1F7C82EDA
:10289000F29EC00C112483E194E00E9421029C016D
:1028A000332764E0359527956A95E1F7B82EF29EB7
:1028B000B00C112483E194E00E9421029C01332793
:1028C00074E0359527957A95E1F7F29E800D1124F5
:1028D0008093DC04B092DD04C092DE04E092DF0459
:1028E0001093E004D092E104812F90E03CE3E39E5A
:1028F000800D911D11249093B2028093B1020E9429
:102900002510E090DE048E2C912C5090DD04C52C17
:10291000D12C96012450310927303105A8F0A401AB
:10292000481B5109CA0153E0C516D10421F411E036
:1029300008976CF40BC02BE0C216D10439F411E0F7
:10294000181619061CF003C011E001C010E0109326
:10295000B0024090DC04A42CB12C30E3A31A38EF71
:10296000B30A012F9401A601B50181E00E940A0D6E
:102970003C019093A3028093A2029401A601B501A9
:1029800080E00E940A0D6C019093A1028093A00246
:102990008091AF028117B9F09091E1042091E00499
:1029A0008091DF04112311F08F5F01C081504982B3
:1029B0005A82EB828C832D839E83CE0101960E94E6
:1029C000560C1093AF02B30186E091E00E94A90774
:1029D000B60180E091E00E94A90787E894E00E9498
:1029E0001805811118C085E794E00E94180581112F
:1029F00012C083E694E00E94180581110CC081E5A5
:102A000094E00E941805811106C08FE394E00E94B3
:102A10001805882349F10E94950F6093AB027093CB
:102A2000AC028093AD029093AE026091C104862FF8
:102A300084608093C1046C6040E08BEB94E00E9462
:102A4000D40680919F0282FF0AC08E7F80939F02EE
:102A500044EF51E06FEF8AEA94E00E94C70480914E
:102A60009F028B7F80939F0210919F0210FD06C0F2
:102A700081E594E00E941805811162C110919F02C6
:102A800010FF2EC083E694E00E941805882319F0F9
:102A90001E7F10939F0210929E0285E794E00E9491
:102AA0001805811151C100919E02102F12951F70BF
:102AB00031F085E794E00E941805811148C181E555
:102AC00094E00E94180581114AC100919E02102FC6
:102AD0001F7031F083E694E00E941805811146C111
:102AE0000E94950F0091AB021091AC022091AD02B3
:102AF0003091AE02DC01CB01801B910BA20BB30B1A
:102B000081319742A105B10560F080919F028460F8
:102B100080939F024CED55E060E08AEA94E00E94C9
:102B2000C7040E94950F2AE337E040E050E00E947E
:102B30000B1C21E0653671058105910508F020E048
:102B4000622F8DE00E946C0E0E94950F28E037E006
:102B500040E050E00E940B1C6538734081059105F0
:102B600018F46FEF70E002C060E070E083E00E9454
:102B7000D70E60E070E08AE00E94D70E60E070E05F
:102B80008BE00E94D70E0E94950F28E532E040E0CE
:102B900050E00E940B1C6D3271408105910540F49C
:102BA00060E070E083E00E94D70E6FEF70E007C036
:102BB00060E070E083E00E94D70E60E070E08AE0A1
:102BC0000E94D70E60E070E08BE00E94D70E20914B
:102BD000B1023091B2024091B3028091A002909173
:102BE000A102840F911D82179307A0F461E088E091
:102BF0000E946C0E60E070E083E00E94D70E6FEFE1
:102C000070E08AE00E94D70E60E070E08BE00E94E6
:102C1000D70E0FC04091B4028091A2029091A302FE
:102C2000840F911D2817390708F360E088E00E949F
:102C30006C0E8AEA94E00E94730489E994E00E9491
:102C4000730480919F0282FD04C08AE294E00E9496
:102C5000E8048091A9029091AA0201968436910518
:102C600028F49093AA028093A9022EC01092AA027F
:102C70001092A9020E94360F4B015C018091A502BF
:102C80009091A602A091A702B091A802A50194017B
:102C9000281B390B4A0B5B0BCA01B90124E630E053
:102CA00040E050E00E940B1C20939A0230939B025C
:102CB00040939C0250939D028092A5029092A6029E
:102CC000A092A702B092A8028091A402882399F052
:102CD0000E94950F28E532E040E050E00E940B1C76
:102CE00021E06D3271408105910508F020E0622FEE
:102CF00089E00E946C0E86E793E00E940A01843608
:102D0000B1F02CF48136A9F41092A40212C08337DA
:102D100031F0873771F440ED57E06AEF03C048EEB9
:102D200053E069E189E994E00E94C70402C030924F
:102D3000A4028FE194E00E94E8040E94D30136CD02
:102D4000116010939F029ACE20929E02ACCE115F2A
:102D50001295107F0F70012B00939E02B0CE8091D0
:102D60009E02807F8D6080939E02AFCE115F1F70A8
:102D7000007F012B00939E02B3CE10927903109234
:102D8000780388EE93E0A0E0B0E080937A0390931C
:102D90007B03A0937C03B0937D0328E631E030935E
:102DA00077032093760325EC30E030938303209360
:102DB000820324EC30E0309385032093840320ECDD
:102DC00030E0309387032093860321EC30E030938A
:102DD00089032093880322EC30E030938B03209307
:102DE0008A0326EC30E030938D0320938C031092FD
:102DF0008F031092900310929103109292031092FD
:102E00001604109215048093170490931804A0934D
:102E10001904B0931A048AE791E090931404809304
:102E2000130480E18093E1048CE18093E00486E068
:102E30008093DF0440E081E697E9542F537021E04E
:102E400009F020E061E0640F30E0F901E359FE4F42
:102E50008E179F0730F0821B930B8D569140462FA3
:102E6000ECCF4093DC0421E0E22FF0E0E15CFE4F88
:102E7000E491511103C0223009F4EF5FF0E031E03A
:102E8000320F8E179F0720F08E1B9F0B232FECCF46
:102E90002093DD048F5F8093DE041092BE041092B5
:102EA000BD048CE891E09093BC048093BB0487E25E
:102EB0008093BF0484E18093C40484E08093C504BC
:102EC0001092C60486E08093AB0489E080939A0454
:102ED0006EE087E894E00E94A10F6FE085E794E040
:102EE0000E94A10F60E183E694E00E94A10F61E1DE
:102EF00081E594E00E94A10F6CE08FE394E00E94D2
:102F0000A10F85EC9EEFA4E4B2E480933504909386
:102F10003604A0933704B093380484E096EFA5EF0D
:102F2000B2EC8093390490933A04A0933B04B0939D
:102F30003C0488EF9FEF90933E0480933D0481E032
:102F400080932A0410922B0410922C0410922D04CA
:102F500010922E0448EE53E060E070E040932F049E
:102F600050933004609331047093320420EF36E0C4
:102F7000309334042093330480931F041092200470
:102F800010922104109222041092230480ED97E005
:102F9000A0E0B0E08093240490932504A09326043D
:102FA000B093270484E293E090932904809328044B
:102FB0000895F999FECF92BD81BDF89A992780B501
:102FC0000895262FF999FECF1FBA92BD81BD20BD6D
:102FD0000FB6F894FA9AF99A0FBE019608959F9346
:102FE0009F770E948E190F90002042F49058A2EA19
:102FF0002AED3FE049E450E40E9418180C94781A36
:103000005058BB27AA270E9418180C94781A0E94BF
:103010003F1A38F00E94461A20F039F49F3F19F405
:1030200026F40C94011A0EF4E095E7FB0C94D219E7
:10303000E92F0E949D1A58F3BA1762077307840795
:10304000950720F079F4A6F50C94D71A0EF4E095C4
:103050000B2EBA2FA02D0B01B90190010C01CA0152
:10306000A0011124FF27591B99F0593F50F4503EFD
:1030700068F11A16F040A22F232F342F4427585FEF
:10308000F3CF469537952795A795F0405395C9F707
:103090007EF41F16BA0B620B730B840BBAF09150BF
:1030A000A1F0FF0FBB1F661F771F881FC2F70EC05E
:1030B000BA0F621F731F841F48F487957795679531
:1030C000B795F7959E3F08F0B0CF9395880F08F01D
:1030D0009927EE0F9795879508959F939F77EEE335
:1030E00089379E0728F4E8E6F0E00E942B1A0CC00E
:1030F0000E948E199058A2EA2AED3FE049EC5FE366
:103100000E9418180E94781A0F9007FC9058089592
:103110000E94AE1908F481E008950E944F1AE395C9
:103120000C94891A0E94A6180C94781A0E94461AC8
:1031300058F00E943F1A40F029F45F3F29F00C94A8
:10314000D21951110C94D81A0C94011A0E949D1A8C
:1031500068F39923B1F3552391F3951B550BBB27C6
:10316000AA2762177307840738F09F5F5F4F220F0B
:10317000331F441FAA1FA9F335D00E2E3AF0E0E802
:1031800032D091505040E695001CCAF72BD0FE2F4C
:1031900029D0660F771F881FBB1F261737074807E0
:1031A000AB07B0E809F0BB0B802DBF01FF27935898
:1031B0005F4F3AF09E3F510578F00C94D2190C9471
:1031C000D81A5F3FE4F3983ED4F3869577956795D8
:1031D000B795F7959F5FC9F7880F911D96958795CD
:1031E00097F90895E1E0660F771F881FBB1F6217EC
:1031F00073078407BA0720F0621B730B840BBA0BAA
:10320000EE1F88F7E09508950E940B196894B1119C
:103210000C94D81A08950E94A51A88F09F5798F028
:10322000B92F9927B751B0F0E1F0660F771F881FCB
:10323000991F1AF0BA95C9F714C0B13091F00E94E5
:10324000D71AB1E008950C94D71A672F782F8827E2
:10325000B85F39F0B93FCCF3869577956795B3950C
:10326000D9F73EF490958095709561957F4F8F4F7B
:103270009F4F0895E89409C097FB3EF49095809580
:10328000709561957F4F8F4F9F4F9923A9F0F92F2C
:1032900096E9BB279395F695879577956795B795AA
:1032A000F111F8CFFAF4BB0F11F460FF1BC06F5F90
:1032B0007F4F8F4F9F4F16C0882311F096E911C0A2
:1032C000772321F09EE8872F762F05C0662371F0C3
:1032D00096E8862F70E060E02AF09A95660F771FD7
:1032E000881FDAF7880F9695879597F908950E94B9
:1032F000BF1A90F09F3748F4911116F00C94D81A29
:1033000060E070E080E89FEB089526F41B16611DD5
:10331000711D811D0C94D8190C94F319DF93CF9370
:103320001F930F938B01EC01ECE7F0E00E94041A6D
:103330000E94781A9801AE018B01EC0160E070E008
:1033400080E89FE30E9400180E945E1B9801AE0176
:103350000F911F91CF91DF910C94F61A990F0008ED
:10336000550FAA0BE0E8FEEF16161706E807F90757
:10337000C0F012161306E407F50798F0621B730BF2
:10338000840B950B39F40A2661F0232B242B252B73
:1033900021F408950A2609F4A140A6958FEF811D16
:1033A000811D089597F99F6780E870E060E00895B7
:1033B000882371F4772321F09850872B762F07C04C
:1033C000662311F499270DC09051862B70E060E0C0
:1033D0002AF09A95660F771F881FDAF7880F96955F
:1033E000879597F908959F3F31F0915020F4879584
:1033F00077956795B795880F911D9695879597F95D
:1034000008959FEF80EC0895DF93CF931F930F9360
:10341000FF92EF92DF927B018C01689406C0DA2E56
:10342000EF010E94F61AFE01E894A59125913591CD
:1034300045915591A6F3EF010E941818FE019701DE
:10344000A801DA9469F7DF90EF90FF900F911F9138
:10345000CF91DF9108959F938F937F936F93FF9305
:10346000EF939B01AC010E94E31AEF91FF910E9440
:10347000041A2F913F914F915F910C94E31A00240D
:103480000A941616170618060906089500240A94C9
:10349000121613061406050608950C94011A0E94CC
:1034A000A51AD8F3E894E0E0BB279F57F0F02AED87
:1034B0003FE049EC06C0EE0FBB0F661F771F881F69
:1034C00028F0B23A62077307840728F0B25A620BF9
:1034D000730B840BE3959A9572F7803830F49A95C4
:1034E000BB0F661F771F881FD2F790480C94F51901
:1034F000092E0394000C11F4882352F0BB0F40F402
:10350000BF2B11F460FF04C06F5F7F4F8F4F9F4F41
:103510000895EF93E0FF07C0A2EA2AED3FE049ECEF
:103520005FEB0E9418180E94781A0F90039401FC18
:103530009058E4EAF0E00C942B1A57FD9058440F91
:10354000551F59F05F3F71F04795880F97FB991F02
:1035500061F09F3F79F087950895121613061406BF
:10356000551FF2CF4695F1DF08C01616170618064C
:10357000991FF1CF869571056105089408950E9401
:10358000A51AA0F0BEE7B91788F4BB279F3860F4EE
:103590001616B11D672F782F8827985FF7CF86956D
:1035A00077956795B11D93959639C8F30895E8947A
:1035B000BB2766277727CB0197F908950E94AE199C
:1035C00008F48FEF08950E94F61A0C94781A0E945E
:1035D0003F1A38F00E94461A20F0952311F00C94FF
:1035E000D2190C94011A11240C94D81A0E949D1A15
:1035F00070F3959FC1F3950F50E0551F629FF00146
:10360000729FBB27F00DB11D639FAA27F00DB11D5E
:10361000AA1F649F6627B00DA11D661F829F2227E7
:10362000B00DA11D621F739FB00DA11D621F839F6E
:10363000A00D611D221F749F3327A00D611D231F44
:10364000849F600D211D822F762F6A2F11249F5792
:1036500050409AF0F1F088234AF0EE0FFF1FBB1F95
:10366000661F771F881F91505040A9F79E3F510554
:1036700080F00C94D2190C94D81A5F3FE4F3983E72
:10368000D4F3869577956795B795F795E7959F5FFE
:10369000C1F7FE2B880F911D9695879597F9089590
:1036A0009F930E944F1A0F9007FCEE5F0C94891AAB
:1036B00019F416F40C94011A0C94F3190E94A51A2B
:1036C000B8F39923C9F3B6F39F57550B87FF0E94B0
:1036D000C81B0024A0E640EA9001805856959795B3
:1036E00028F4805C660F771F881F20F026173707A5
:1036F000480730F4621B730B840B202931294A2BB5
:10370000A69517940794202531254A2758F7660F68
:10371000771F881F20F026173707480730F4620B01
:10372000730B840B200D311D411DA09581F7B9014C
:10373000842F9158880F969587950895DF93D92FF8
:103740000E944F1AE695D7952AED3FE049E45FE3E2
:10375000B33A6207730784079507D7953AF0A2EA50
:1037600049EC90680E9418180E94781AE2ECF0E088
:103770000E942B1ADD0F13F00E94CF1BDD0F0BF4FC
:103780009058DF9108950E94AE19880B990B089507
:1037900091505040660F771F881FD2F708959B0104
:1037A000AC0160E070E080E89FE30C949218991BF4
:1037B00079E004C0991F961708F0961B881F7A9528
:1037C000C9F780950895AA1BBB1B51E107C0AA1F2A
:1037D000BB1FA617B70710F0A61BB70B881F991FB2
:1037E0005A95A9F780959095BC01CD01089597FB56
:1037F000072E16F4009407D077FD09D00E94E31B32
:1038000007FC05D03EF4909581959F4F08957095E3
:1038100061957F4F0895A1E21A2EAA1BBB1BFD01E3
:103820000DC0AA1FBB1FEE1FFF1FA217B307E4079F
:10383000F50720F0A21BB30BE40BF50B661F771FF7
:10384000881F991F1A9469F76095709580959095D7
:103850009B01AC01BD01CF010895052E97FB1EF41D
:1038600000940E94441C57FD07D00E940B1C07FCCB
:1038700003D04EF40C94441C5095409530952195FE
:103880003F4F4F4F5F4F089590958095709561958C
:103890007F4F8F4F9F4F0895B7FF0C945A1C0E9483
:1038A0005A1C821B930B0895EE0FFF1F0590F49195
:1038B000E02D09940E94651CA59F900DB49F900D6A
:1038C000A49F800D911D11240895A29FB001B39F64
:1038D000C001A39F700D811D1124911DB29F700D19
:1038E000811D1124911D089581E090E0F8940C94BD
:0638F000791CF894FFCFE3
:1038F60030303A30300030303A30300045525200E5
:103906004A616E00466562004D6172004170720048
:103916004D6179004A756E004A756C004175670005
:10392600536570004F6374004E6F76004465630004
:1039360053756E004D6F6E005475650057656400D3
:1039460054687500467269005361740000004000B7
:1039560014005400000000006401D100FB00B10116
:103966002C010A011E01000000006A023D029A02B3
:10397600110235022102120200000000EA06D100FF
:103986009A02990253657269616C20506F727420B5
:1039960069732072756E6E696E67206174200020EF
:1039A600626175642E004C6F636174696F6E3A20B4
:1039B6004275726E6162792C2042432C204341008D
:1039C6004C61746974756465203D20004C6F6E67A8
:1039D6006974756465203D2000555443206F666602
:1039E6007365743A2000446562756720456E6162AE
:1039F6006C656400426175643A20003D3D3D3D3D85
:103A06003D3D3D3D3D3D3D3D3D3D3D3D3D3D3D3DE0
:103A16003D3D3D3D3D3D3D0043757272656E7420F2
:103A2600646174652F74696D653A002C200020402E
:103A360020004275726E6162792073756E726973C9
:103A4600653A20004D696E2E206166746572206DA0
:103A560069646E696768743A20004275726E6162C5
:103A6600792073756E7365743A20005363616E2016
:103A760054696D653A2000522E00532E003E0030E8
:063A860030000D0A0000F3
:107800000C94343C0C94513C0C94513C0C94513CE1
:107810000C94513C0C94513C0C94513C0C94513CB4
:107820000C94513C0C94513C0C94513C0C94513CA4
:107830000C94513C0C94513C0C94513C0C94513C94
:107840000C94513C0C94513C0C94513C0C94513C84
:107850000C94513C0C94513C0C94513C0C94513C74
:107860000C94513C0C94513C11241FBECFEFD8E036
:10787000DEBFCDBF11E0A0E0B1E0ECE9FFE702C060
:1078800005900D92A230B107D9F712E0A2E0B1E065
:1078900001C01D92AD30B107E1F70E942D3D0C945F
:1078A000CC3F0C94003C982F959595959595959582
:1078B000905D8F708A307CF0282F295A8091C0000B
:1078C00085FFFCCF9093C6008091C00085FFFCCF60
:1078D0002093C6000895282F205DF0CF982F809127
:1078E000C00085FFFCCF9093C6000895EF92FF92F1
:1078F0000F931F93EE24FF2487018091C00087FD22
:1079000017C00894E11CF11C011D111D81E4E8164B
:1079100082E4F8068FE0080780E0180770F3E09132
:107920000401F091050109958091C00087FFE9CF1E
:107930008091C6001F910F91FF90EF9008950E94D3
:10794000763C982F8091C00085FFFCCF9093C600B5
:1079500091362CF490330CF09053892F089597555D
:10796000892F08951F930E949F3C182F0E949F3CCF
:107970001295107F810F1F9108951F93182F882350
:1079800021F00E94763C1150E1F71F9108951F935A
:10799000182F0E94763C803249F0809103018F5F5E
:1079A000809303018530C1F01F9108958091C0003C
:1079B00085FFFCCF84E18093C6008091C00085FFE5
:1079C000FCCF1093C6008091C00085FFFCCF80E102
:1079D0008093C6001F910895E0910401F091050184
:1079E00009951F9108950E94763C803241F0809164
:1079F00003018F5F80930301853081F008958091AA
:107A0000C00085FFFCCF84E18093C6008091C00058
:107A100085FFFCCF80E18093C6000895E0910401CA
:107A2000F09105010995089540E951E08823A1F0FE
:107A30002D9A28EE33E0FA013197F1F721503040CA
:107A4000D1F72D9828EE33E0FA013197F1F7215064
:107A50003040D1F7815061F708953F924F925F9285
:107A60006F927F928F929F92AF92BF92CF92DF924E
:107A7000EF92FF920F931F93CF93DF93000080E16B
:107A80008093C4001092C50088E18093C10086E015
:107A90008093C2005098589A259A81E00E94143D24
:107AA00024E1F22E9EE1E92E85E9D82E0FE0C02ECA
:107AB00010E1B12EAA24A394B1E49B2EA6E58A2E50
:107AC000F2E57F2EE0E26E2E79E4572E63E5462E36
:107AD00050E5352E0E94763C8033B1F18133B9F107
:107AE000803409F46FC0813409F476C0823409F41B
:107AF00085C0853409F488C0803531F1823521F1A3
:107B0000813511F1853509F485C0863509F48DC0BC
:107B1000843609F496C0843709F403C1853709F423
:107B200072C1863709F466C0809103018F5F80932C
:107B30000301853079F6E0910401F0910501099582
:107B40000E94763C803351F60E94F33CC3CF0E94E2
:107B5000763C803249F78091C00085FFFCCFF092DF
:107B6000C6008091C00085FFFCCF9092C600809136
:107B7000C00085FFFCCF8092C6008091C00085FFC9
:107B8000FCCF7092C6008091C00085FFFCCF609250
:107B9000C6008091C00085FFFCCF5092C600809146
:107BA000C00085FFFCCF4092C6008091C00085FFD9
:107BB000FCCF3092C6008091C00085FFFCCFB09210
:107BC000C60088CF0E94763C863808F4BDCF0E945C
:107BD000763C0E94F33C7ECF0E94763C803809F4CC
:107BE0009CC0813809F40BC1823809F43CC1883942
:107BF00009F48FC080E00E94C73C6CCF84E10E94F2
:107C0000BD3C0E94F33C66CF85E00E94BD3C0E94D3
:107C1000F33C60CF0E94763C809306010E94763C44
:107C2000809307010E94F33C55CF0E94763C80333D
:107C300009F41DC183E00E94BD3C80E00E94C73C66
:107C400049CF0E94763C809309020E94763C809343
:107C5000080280910C028E7F80930C020E94763C79
:107C6000853409F415C18091080290910902892B8D
:107C700089F000E010E00E94763CF801E85FFE4FDA
:107C800080830F5F1F4F80910802909109020817AF
:107C9000190788F30E94763C803209F045CF809125
:107CA0000C0280FF01C16091060170910701660F0F
:107CB000771F7093070160930601A0910802B091AD
:107CC00009021097C9F0E8E0F1E09B01AD014E0F09
:107CD0005F1FF999FECF32BD21BD819180BDFA9A17
:107CE000F99A2F5F3F4FE417F50799F76A0F7B1F4B
:107CF00070930701609306018091C00085FFFCCF5F
:107D0000F092C6008091C00085FFFCCFB092C60003
:107D1000E1CE83E00E94C73CDDCE82E00E94C73CFA
:107D2000D9CE0E94763C809309020E94763C8093D3
:107D300008028091060190910701880F991F909386
:107D40000701809306010E94763C853409F4A6C0A1
:107D500080910C028E7F80930C020E94763C8032D0
:107D600009F0B8CE8091C00085FFFCCFF092C6002C
:107D7000609108027091090261157105B9F140E046
:107D800050E080910C02A82FA170B82FB27011C0E2
:107D9000BB2309F45CC0E0910601F0910701319624
:107DA000F0930701E09306014F5F5F4F46175707B7
:107DB000E8F4AA2369F3F999FECF209106013091E6
:107DC000070132BD21BDF89A90B58091C00085FFB2
:107DD000FCCF9093C6002F5F3F4F30930701209355
:107DE00006014F5F5F4F4617570718F38091C00099
:107DF00085FDE5CE8091C00085FFF8CFE0CE81E023
:107E00000E94C73C67CE0E94763C803209F08CCE3F
:107E10008091C00085FFFCCFF092C6008091C00029
:107E200085FFFCCFE092C6008091C00085FFFCCFAB
:107E3000D092C6008091C00085FFFCCFC092C600E2
:107E40008091C00085FFFCCFB092C60043CEE09188
:107E50000601F091070194918091C00085FFFCCF4D
:107E60009093C6009CCF80E10E94C73C33CE0E9415
:107E7000763C0E94763C182F0E94763C112309F430
:107E800083C0113009F484C08FE00E94C73C22CE29
:107E900080910C02816080930C02E5CE80910C02EF
:107EA000816080930C0259CF809107018823880F4D
:107EB000880B8A2180930B02809106019091070123
:107EC000880F991F90930701809306018091080203
:107ED00080FF09C080910802909109020196909359
:107EE000090280930802F894F999FECF1127E091D6
:107EF0000601F0910701C8E0D1E08091080290915D
:107F00000902103091F40091570001700130D9F34B
:107F100003E000935700E89500915700017001308D
:107F2000D9F301E100935700E89509901990009169
:107F3000570001700130D9F301E000935700E89534
:107F40001395103498F011270091570001700130FB
:107F5000D9F305E000935700E895009157000170B0
:107F60000130D9F301E100935700E895329602976A
:107F700009F0C7CF103011F00296E5CF112480919F
:107F8000C00085FFB9CEBCCE8EE10E94C73CA2CD19
:0C7F900085E90E94C73C9ECDF894FFCF0D
:027F9C00800063
:040000030000780081
:00000001FF
